:020000040800F2
:1000000040090020C1010008272F00081B2A000812
:10001000252F0008A10900080D320008000000008B
:10002000000000000000000000000000493100084E
:10003000B50A000800000000292F0008D9010008B7
:10004000DB010008DB010008DB010008DB01000820
:10005000DB010008DB010008DB010008DB01000810
:10006000DB010008DB010008DB010008DB01000800
:10007000DB010008DB010008DB010008DB010008F0
:10008000DB010008DB010008DB010008DB010008E0
:10009000DB010008DB010008DB010008DB010008D0
:1000A000DB010008DB010008DB010008DB010008C0
:1000B000DB010008DB010008DB010008DB010008B0
:1000C000DB010008DB010008DB010008DB010008A0
:1000D000DB010008DB010008DB010008DB01000890
:1000E000DB010008DB010008DB010008DB01000880
:1000F000DB010008DB010008DB010008DB01000870
:10010000DB010008DB010008DB010008DB0100085F
:10011000DB010008DB010008DB010008DB0100084F
:10012000DB010008DB010008DB010008DB0100083F
:10013000DB010008DB010008DB010008DB0100082F
:10014000DB010008DB010008DB010008DB0100081F
:10015000DB010008DB010008DB010008DB0100080F
:10016000DB010008DB010008DB010008DB010008FF
:10017000DB010008DB010008DB01000800000000D3
:10018000DB010008DB010008DB010008DB010008DF
:10019000DB010008DB010008DB010008DB010008CF
:1001A000DB010008DB010008DB010008DFF80CD0F0
:1001B00000F08CF80048004709350008400900208D
:1001C0000648804706480047FEE7FEE7FEE7FEE7F1
:1001D000FEE7FEE7FEE7FEE7FEE7FEE7F131000897
:1001E000AD0100082DE9F05F0546002092469B46D0
:1001F00088460646814640241BE02846414647463D
:10020000224600F053F853465A46C01A914110D383
:1002100011461846224600F03AF82D1A67EB0108FD
:100220004F4622460120002100F031F817EB00096B
:100230004E41201EA4F10104DFDC484631462A4627
:100240004346BDE8F09F40EA01039B0703D009E065
:1002500008C9121F08C0042AFAD203E011F8013BB2
:1002600000F8013B521EF9D27047D2B201E000F80B
:10027000012B491EFBD270470022F6E710B513464A
:100280000A4604461946FFF7F0FF204610BD202A13
:1002900004DB203A00FA02F1002070479140C2F1DD
:1002A000200320FA03F3194390407047202A04DB0F
:1002B000203A21FA02F00021704721FA02F3D040DF
:1002C000C2F120029140084319467047064C074D81
:1002D00006E0E06840F0010394E807009847103416
:1002E000AC42F6D3FFF766FFC8500008E85000089C
:1002F0007CB5054600F0DCF8044600F0D3F8024671
:100300000020CDE900050748074B006800EB80019D
:1003100001EBC00103EB81012346C96D00F0B8FC7D
:100320007CBD000030000020F00200200A4B30B4F9
:100330001B6803EB4304094B03EB84039B68DD88D4
:100340001C689B88DB1DDB08203A13FB02F205FBCF
:10035000024230BC00F0B0BB300000200804002096
:10036000034840688068002800D0004770470000BC
:10037000300000202DE9F0470446002799468A46C0
:100380001546B846104601E008F1010810F8011BB7
:100390000029F9D100F086F8254A264E4B4611680F
:1003A000B9F1010F01EB410106EB810189688988F0
:1003B000B0FBF1F002D0022B0BD105E0A0EB08005E
:1003C000484304EB500003E0A0EB080000FB0140B1
:1003D00084B2904600F066F80146D8F8000000EBC1
:1003E000400006EB80008068808807FB101189B20E
:1003F000814213D3012012E051462046FFF796FFB9
:10040000D8F800007F1C00EB400006EB8000BFB274
:1004100080686D1C8088204484B2DBE700202A7845
:100420000AB1012100E000210842E5D1BDE8F087D2
:10043000300000200804002010B50A46034600F0F2
:1004400023F8C088BDE81040584381B20323002040
:10045000FFF790BF70B514460D46064600F022F82F
:10046000074905FB0060096801EB810202EBC1014D
:10047000044A02EB8101C96D41F8204070BD0000C3
:1004800030000020F002002004480549006800EB1D
:10049000400001EB800080687047000030000020C1
:1004A0000804002001484068806A004730000020AE
:1004B00001484068C06A00473000002070B5214CF8
:1004C0001F4800252060092060610120A0611D20D7
:1004D000E0610320206240F20D10606240F24310A0
:1004E000A06240F21710E06240F24710206384F8E7
:1004F000365084F8345004F1E80084F8355008216F
:100500000160C021016104218161C903416201F0E0
:1005100085FB6560A560E560256100F059F820461F
:1005200001F0B8F90949084848600068804700F0C0
:1005300005F90648083000F0E7F8002070BD00001B
:1005400000680140F002002044000020300000203C
:1005500070B58EB000240E4605460094FFF7A2FF4A
:10056000CDE90104FFF7A4FF0996CDE90304FF20BC
:10057000CDE905048DF830408DF831408DF83240DA
:100580004FF4C060079007200890FFF78BFF0A9098
:10059000FFF78EFF0B902A4669460A4801F038F9AA
:1005A000094905EB450001EB8002631E5360074BD0
:1005B00093604FF07F4241F82020024801F052F949
:1005C0000EB070BDF00200200804002038000020AA
:1005D00030B5434887B00021026842F08062026073
:1005E000006800F0806005903D481438026842F4CD
:1005F00000020260026802F400020592026842F002
:1006000001020260026802F001020592026842F0F3
:1006100002020260026802F002020592026842F0E1
:1006200004020260026802F004020592026842F0CD
:1006300008020260026802F008020592026842F0B5
:1006400020020260026802F020020592026842F075
:1006500040020260006800F04000059041F658003A
:1006600000900220CDE9010103900E20049069461C
:100670001C4800F055FE4FF470601B4C009069461A
:10068000204600F04DFE4FF49860009069461748F0
:1006900000F046FE482000906946154800F040FEF4
:1006A000201500906946134800F03AFE4FF40C60A4
:1006B000114D00906946284600F032FE032000905C
:1006C000092004906946204600F02AFE4FF4A0500D
:1006D00000906946284600F023FE07B030BD0000B8
:1006E000443802400000024000040240000802407A
:1006F000000C02400014024000180240014908604A
:1007000070470000300000200449054A096801EBE9
:10071000410102EB81018860704700003000002039
:10072000080400200349044A096801EB410142F82A
:1007300021007047300000200804002070B51B48DD
:1007400019490423016000F13401022207248B605F
:10075000C1E90024C1E903424A618A611021C0E96C
:1007600003314021416101260024C0E901644FF4B6
:10077000C071C0E906149102C0E9081489008162C1
:10078000214600F05BF809490848343101F0F8FDD2
:10079000074D08B12E7000E02C7040F26A5000F056
:1007A00009F8287870BD0000400100A0E004002096
:1007B000400000202DE9F84F1F4C00250126082796
:1007C0000095C4E90067C4E9026582464FF6FF79E7
:1007D00021464A46A1F1500001F006FE012000F03A
:1007E00059FC0220C4E90007C4E9026521464A46D3
:1007F000A1F1500001F0F8FD03204FF00408E5607E
:1008000084E8810121464A46A1F1500001F0ECFD47
:100810004FF40C700090C4E90260C4E900872146DF
:100820004A46A1F1500001F0DFFD5146A4F150000D
:10083000BDE8F84F01F0C7BD3005002030B587B0E6
:1008400005007DD04D480024016841F001010160A0
:1008500000684A4900F0010008390590086840F432
:1008600080000860086800F480000590086840F087
:1008700002000860086800F002000590086840F077
:1008800004000860086800F004000590086840F063
:1008900008000860086800F008000590086840F04B
:1008A00010000860086800F010000590086840F02B
:1008B00020000860086800F020000590086840F0FB
:1008C000400008600868694600F04000059002207A
:1008D000CDE9024001900C2004906020009028484F
:1008E00000F01EFD012000906946264800F018FD2A
:1008F0004CF2037000906946234800F011FD4FF65A
:10090000837000906946214800F00AFD4FF63F00D1
:10091000009069461E4800F003FD48F23310009035
:1009200069461C4800F0FCFC1B498020C1E90140DD
:100930008000C8604000086180004861800000E0DD
:100940001AE0C1E90604C000C1E908040320C1E9B6
:100950000A0412480C630860296308468D6300F09E
:10096000FDFA0D4800F02CFB00220F21382001F089
:10097000EBF8382001F0DAF807B030BD3838024023
:100980000004024000080240000C02400010024037
:1009900000140240001802402004002010640240AD
:1009A000FEE7F0B50468059E656C46EA034305F072
:1009B00040451D4365640368DA634268B2F5403F11
:1009C00002D00068C160F0BD01F47F4201F47F0CE9
:1009D000866801F07F4301F47F0701F47F45CCB2C4
:1009E00042EA0C02BEB1012E16D001F47F02D20CF5
:1009F000C1F3C401022E11D0032E14D0190F3A0DE9
:100A00002D0B23092C0144EA022242EA01321A4347
:100A100000688263F0BD1A432243F9E7AB0A5B0129
:100A200043EAC22206E0DB0FEC0A640144EA8222B8
:100A300042EAC3320A43EBE701681823CAB2103A0C
:100A4000B2FBF3F2054B6FF30901032A9B5CC3650C
:100A500000D9091D8165084670470000F03500087F
:100A600010B5014600208B698A6A4FF0C07453B1FB
:100A7000B3F5005F15D072B1012A0CD0022A0AD05A
:100A8000032A09D104E01AB1012A06D0022A03D1AF
:100A9000C96AC90100D5012010BDC96AA142FAD0B6
:100AA00010BD002AF7D0012AF2D0022AF3D0032A7F
:100AB000F3D010BD704700002DE9F74FDFF8A4A078
:100AC0000026DAF8000000EB4001274800EB810027
:100AD00080688588C788E81D834620F00700401B92
:100AE00000F0FF093AE000BF4FEADB01029801295C
:100AF00001FB06000BD002290BD0017842780904D3
:100B0000807841EA022141EA000800241FE00078D1
:100B100001E0008840BA8046F7E7291B49440120DC
:100B2000491E884010EA080FDAF8000000EB400187
:100B30000D4802D050F8212002E000EB810042680D
:100B400000980199204480B2FFF784FC641CAC42F9
:100B5000E3D30198401C80B2761C0190BE42C3D3FF
:100B6000BDE8FE8F300000200804002030B5D1E938
:100B700001231A43D1E903352B431A434B690C680F
:100B80001A438B691A43D1E90735012C496A046875
:100B900007D01A432A436FF30E040A43224302602C
:100BA0000AE024F4F8442B4321430B4341680360DB
:100BB0006FF30E010A434260002030BD426942EAF1
:100BC0004101416100207047F8B514460546D1E95E
:100BD000000210438A686FF01F03C96803EB4212DA
:100BE00042EA412108430090286100F089FC064652
:100BF00009E0601C07D024B100F082FC801BA042F9
:100C000001D90320F8BDA8698006F2D40020F8BD00
:100C1000F0B56FF00F05D1E9003405EB04145B1E4D
:100C200023432E018C682F0306EB042423434FEA51
:100C3000054C0C8A8E8ACD68097E4FF07F4E07EBFB
:100C400004440CEB06560EEB0161012A0CD08268BD
:100C50003F1107EB05352B432343334302F070422A
:100C60000B43134383600FE08768084A17402A0349
:100C7000A2F580523243C5683A43234305F07045DC
:100C80000B432B438260C3600020F0BDFF0F0FFFBA
:100C90002DE9F8430E460746DDE9081812481546C7
:100CA0004FF4403242600022C0E902210F491C4645
:100CB000016000F06FF8002814D139460A4800F0AE
:100CC00017F800280ED12B463246414606480094BC
:100CD00000F02AF9002805D1BDE8F8430A210248AE
:100CE00000F09AB8BDE8F8839803002000B00240F5
:100CF00070B590F83820012A24D0012680F8386099
:100D0000022280F8392000EB0112148CD3691832CA
:100D100043EA04451E4C0A2B16D0092B14D0137B32
:100D200045EA03630029016813D0CD69A5431D433B
:100D3000CD6103681168196151680A291BD009291E
:100D400019D01DE0022070BDD36803F07F432B4310
:100D5000E8E74D6AA5431D434D6203681168996138
:100D600051680A2901D009290AD1D168026821F005
:100D70007F41916204E0D168026821F07F411162F5
:100D800080F83960002180F83810084670BD0000F6
:100D90000F0003FF70B5040004D094F8390000255B
:100DA00010B106E0012070BD84F83850204600F0F4
:100DB0001FF8022084F8390020680168626821F475
:100DC0004031114301602068416BA26821F00701A6
:100DD000114341632068016CE2686FF30D01114318
:100DE0000164E563012084F83900002070BD000033
:100DF00008B500680649884208D10648016841F4F0
:100E000000010160006800F40000009008BD0000CF
:100E100000B00240303802402DE9F8430026044675
:100E2000009600680D4600684FF00407C0074FF0B9
:100E3000030825D000F064FB81461DE04068009067
:100E400010F0210F0FD00098800603D5E06B40F022
:100E50000200E0630098C00703D0E06B40F001009F
:100E6000E063212034E0681C06D000F049FBA0EBD1
:100E70000900A8424DD8A5B3206841688907DDD58F
:100E80002068C169406A01F0200100F02000084399
:100E900035D000F035FB81462DE04068009010F021
:100EA000290F1FD00098000703D5E06B40F0040025
:100EB000E0630098800603D5E06B40F00200E06339
:100EC0000098C00703D0E06B40F00100E0632920E8
:100ED0002168886084F8397084F838600120BDE8A2
:100EE000F88316E0681C06D000F00AFBA0EB0900AE
:100EF000A8420ED86DB120684168C906CDD52168D9
:100F000012208860012084F8390084F838600020BD
:100F1000E5E754F83C0F40F0200044F8040984F859
:100F2000018026700320DAE738B50446049894F867
:100F30003850012D10D0012584F83850022584F84E
:100F4000395000902046FFF72CFD2068016841F0E1
:100F500001010160002038BD022038BD70B50400D9
:100F60002BD094F83500022826D02068016821F0A3
:100F70000101016020680025056020684560206847
:100F800085602068C560206805612168212048616E
:100F90002046FFF751FDE56325646564A564E564BB
:100FA000256594F85C203F2191408160656584F857
:100FB000355084F83450002070BD012070BD000011
:100FC0002DE9F041044600F09BFA06465CB100258D
:100FD00084F83450022084F835002068016821F03C
:100FE000010101600DE00120BDE8F08100F088FA08
:100FF000801B052805D920206065032084F8350072
:10100000F2E720680068C007F0D122681168204824
:101010000140D4E901031843D4E9033633431843AC
:1010200063691843A3691843E3691843236A1843A3
:101030000843616A042903D1D4E90B131943084317
:10104000106020684069666A20F0070130460E4350
:10105000012704280CD1A06A0643E06A40B120466B
:10106000FFF7FEFC20B14020606584F83570BAE7D8
:10107000206846612046FFF7DFFC94F85C203F21A2
:1010800091408160656584F835700020ACE7000010
:101090003F8010F070B5044600F032FA0546601C3F
:1010A00002D004480078044400F02AFA401BA04211
:1010B000FAD370BD080000202DE9F04186B014215C
:1010C0006846FFF7D9F82B48016800294FD14FF047
:1010D0000108C0F8008028480024016841F001019F
:1010E00001600068022500F0010005904FF63F0006
:1010F000CDE9000502AA03260C2782E8D000694644
:101100001E4800F00DF902AA694682E8D000CDE938
:1011100000851B4800F004F948F23310CDE90005C2
:1011200002AA694682E8D000164800F0F9F84FF6A6
:101130008370CDE9000502AA694682E8D000124812
:1011400000F0EEF84CF20370CDE9000502AA694602
:1011500082E8D0000D4800F0E3F86020CDE90005FA
:1011600002AA694682E8D000094800F0D9F806B022
:10117000BDE8F08100000020383802400014024031
:10118000000802400018024000100240000C02401B
:10119000000402402DE9F04F0022DFF854B101268F
:1011A0004FF00F0906FA02F401EA0403A3427DD1CD
:1011B00022F003075F44D7F808C895074FEA15786F
:1011C00009FA08FA0AEA0C05DFF828C1604502D1DD
:1011D0004FF0000C40E0DFF820C1604502D14FF035
:1011E000010C39E0DFF814C1604502D14FF0020C68
:1011F00032E0DFF80CC1604502D14FF0030C2BE068
:10120000DFF800C1604502D14FF0040C24E0DFF8A4
:10121000F8C0604502D14FF0050C1DE0DFF8ECC0CE
:10122000604502D14FF0060C16E0DFF8E4C06045DF
:1012300002D14FF0070C0FE0DFF8D8C0604502D1B3
:101240004FF0080C08E0DFF8D0C0604502D14FF045
:10125000090C01E04FF00A0C0CFA08FCAC4522D155
:101260002E4DD5F800C02CEA030CC5F800C005F1DE
:10127000040CDCF800509D43CCF800500CF1040540
:10128000D5F800C02CEA030CC5F800C02D1DD5F818
:1012900000C02CEA030CC5F800C0D7F8085825EAAE
:1012A0000A05C7F808580568570000E01AE003234C
:1012B000BB409D430560D50800EB8505D5F820C0EF
:1012C00057074FEAD76809FA08F72CEA070CC5F860
:1012D00020C0C5689D43C5604568A54345608468D6
:1012E0009C438460521C102AFFF45CAFBDE8F08F71
:1012F00000300140000002400004024000080240AB
:10130000000C02400010024000140240001802408D
:10131000001C02400020024000240240003C01402A
:101320002DE9F84F00224FF0010803254FF00F0E72
:101330000B6808FA02F42340A3426ED14E68012ED6
:1013400005D0022E03D0112E01D0122E12D18668A4
:101350004FEA420C05FA0CF7BE43CF6807FA0CF7C8
:10136000374387604668A6430C79C4F30014944061
:1013700034434460C668570005FA07FC8C6826EAC7
:101380000C06BC403443C4604C68022C01D0122CC3
:1013900013D1D40800EB8404A346D4F8209054075A
:1013A0004FEAD46A0EFA0AF629EA06090E6906FA25
:1013B0000AF646EA0906CBF8206004680E7924EAAA
:1013C0000C0406F00306BE40264306604C68E400A9
:1013D0006FD53B4C266846F480462660246822F090
:1013E000030604F480440094364C3444A446D4F8F4
:1013F00008489607360F0EFA06F7BC43324FB8423C
:1014000001D100272EE0314FB84201D1012729E058
:101410002F4FB84202D1022724E04AE02D4FB842B4
:1014200001D103271EE02C4FB84201D1042719E057
:101430002A4FB84201D1052714E0294FB84201D103
:1014400006270FE0274FB84201D107270AE0264FB1
:10145000B84201D1082705E0244FB84201D109273D
:1014600000E00A27B7402743CCF80878204E3468BC
:101470004F689C43FF0300D51C4334601C4E361D4F
:1014800034684F689C43BF0300D51C433460184E3A
:10149000083634684F689C43FF0200D51C43346013
:1014A000134E0C3634684F689C43BF0200D51C4372
:1014B0003460521C102AFFF43BAFBDE8F88F0000E7
:1014C0004438024000300140000002400004024065
:1014D00000080240000C02400010024000140240CC
:1014E00000180240001C024000200240002402407C
:1014F000003C01400AB1816170470904FBE700002C
:1015000001488068704700000800002090F83D20E6
:10151000202A01D002207047242280F83D20026852
:10152000136823F0010313600268536A23F0100369
:1015300053620268536A0B43536201680A6842F0BF
:1015400001020A60202180F83D100020704790F8C9
:101550003D20202A01D002207047242280F83D201F
:101560000268136823F00103136003685A6A22F0CB
:101570000F020A4391B2596201680A6842F00102FF
:101580000A60202180F83D100020704770B50400EB
:1015900025D094F83D00002520B984F83C50204621
:1015A00000F0B8F8242084F83D002068016821F09C
:1015B000010101602068016841F400410160206878
:1015C000016821F40041016000F0ECFC4D4A6168C3
:1015D000914201D84C4900E04C49884201D2012097
:1015E00070BD4B492368B0FBF1F15E6826F03F0601
:1015F0000E435E606368934206D94FF49673594375
:101600004FF47A73B1FBF3F12368491C1E6A26F08C
:101610003F06314319626168914210D84900401E6B
:10162000B0FBF1F2521CC2F30B02042A01D20420D7
:1016300022E0B0FBF1F0401CC0F30B001CE0A268FC
:10164000F2B301EBC10303EB0116431EB3FBF6F348
:101650005B1C43F480431B0549D092B301EBC102EC
:1016600002EB0111401EB0FBF1F0401CC0F30B0077
:1016700040F4804040F400402168CA694CF6FF7392
:101680009A431043C861D4E90710014320680268F7
:1016900022F0C00211430160D4E903010143206834
:1016A000826848F2FF339A4311438160D4E905010F
:1016B00008432168CA6822F0FF021043C86001E0B5
:1016C0000EE016E02068016841F001010160256428
:1016D000202084F83D00256384F83E50002070BD32
:1016E00001EB4106431EB3FBF6F35B1CB3E701209D
:1016F000C2E701EB4101401EB0FBF1F0401CC0F31A
:101700000B00B7E7A086010080841E0000093D00A1
:1017100040420F00F0B587B0044614216846FEF73A
:10172000ABFD1A49206888422DD11948016841F063
:1017300004010160016801F004010591016841F0B4
:10174000010101600068122400F0010005904FF4CF
:1017500000700125032604278DE8F10069460D4835
:10176000FFF7DEFD28028DE8F10069460A48FFF721
:10177000D7FD07481030016841F40001016000689E
:1017800000F40000059007B0F0BD0000005C0040D0
:101790003038024000080240000002400B4810B5FB
:1017A000016841F400710160016841F480610160E9
:1017B000016841F480710160032000F0E5F9002028
:1017C00000F006F800F09AF9002010BD003C02403D
:1017D00070B50D4D04464FF47A712878B1FBF0F0E6
:1017E0000A490968B1FBF0F001F003F948B9102C7F
:1017F00007D200222146501E00F0A6F900206C609E
:1018000070BD012070BD0000080000201400002001
:101810002DE9F041044690F8A00016460F46012835
:101820001DD0012584F8A050022084F8A10006EB09
:10183000860000EBC60004EB800034223830FEF74F
:1018400002FD32463946204601F0ACF92068456277
:1018500084F8A150002084F8A000BDE8F0810220A7
:10186000FBE7000090F8A01001290ED0012100F83C
:10187000A01F02224270064A136843F480331360AB
:101880004170002101700846704702207047000037
:101890001868014070B5040004D094F8A100002538
:1018A00010B106E0012070BD84F8A050204600F081
:1018B0006BF8022084F8A1002068816921F0704152
:1018C0008161D4E901010843D4E9031211430843BB
:1018D00021688A691043886121688A682948024022
:1018E0008A60A18A0A0421688B68A669334313437E
:1018F0008B602168CA680240CA60A18B0B04216812
:10190000CA68266A32431A43CA6021680A690240DB
:101910000A61A18C22680B041169A66A314319433C
:10192000116121684A6902404A61A08D0104206862
:101930004269236B1A430A43426194F835002168D7
:10194000020294F83600CB6A03F07F43CB62216831
:10195000CB6A94F8346042EA004033430343CB62DD
:101960002068416B41F0060141632068816941F0C4
:1019700001018161C4F8A450012084F8A100002075
:1019800070BD000000F800F02DE9F04186B004467B
:1019900014216846FEF770FC5049206888427CD1CB
:1019A0004F480024016841F080610160006800F048
:1019B000806005904A481438016841F020010160B8
:1019C000016801F020010591016841F00101016009
:1019D000016801F001010591016841F00201016017
:1019E000016801F002010591016841F040010160C8
:1019F000016801F040010591016841F004010160B6
:101A0000016801F004010591016841F008010160DD
:101A10000068022500F0080005904FF480600090F7
:101A2000CDE901540E26CDE9034669462D48FFF75E
:101A300077FC41F658000090CDE90154CDE903460A
:101A400069462948FFF76CFC03200090CDE901545A
:101A50000927DFF89880CDE9034769464046FFF73C
:101A60005FFC4FF470600090CDE90154CDE903466E
:101A700069464046FFF754FC4FF40C600090CDE9F6
:101A80000154DFF86C80CDE9034669464046FFF714
:101A900047FC4FF49860009000E01CE0CDE9015451
:101AA000CDE9034669461348FFF73AFC4820009009
:101AB000CDE90154CDE9034669460F48FFF730FCF4
:101AC0004FF4A0500090CDE90154CDE90347694699
:101AD0004046FFF725FC06B0BDE8F08100680140F4
:101AE000443802400014024000000240000402405A
:101AF0000018024000080240000C02400A4808B5E5
:101B0000016841F480410160006800F48040009069
:101B10000548001F016841F080510160006800F035
:101B20008050009008BD000044380240002809DBC6
:101B300000F01F02012191404009800000F1E020E7
:101B4000C0F8001170470000F0B40E4B1B680C4643
:101B5000C3F30223C3F10705042D00D90425191D81
:101B6000072901D2002300E0DB1E012606FA05F159
:101B7000491E214099409E40761E16403143F0BCDC
:101B800001F045BB0CED00E0064900F007020868D3
:101B90004FF6FF03184040EA0220034A1043086052
:101BA000704700000CED00E00000FA052DE9F84355
:101BB0001748016841F0805101600068154F00F03E
:101BC0008050012600903E64FFF79AFC05464FF4D2
:101BD0007A78114C05E000BFFFF792FC401B4045AE
:101BE0000DD86068C003F7D57E64FFF789FC054611
:101BF000464607E0FFF784FC401BB04202D90320B1
:101C0000BDE8F88360688003F4D50020F8E70000A1
:101C10004038024000000E42007000402DE9F84FAD
:101C200004460068DFF824A2894F8A4DC1074FF0AF
:101C300001084FF0000603D1810701D4400648D5C2
:101C4000CAF86860FFF75CFC814605E0FFF758FCC6
:101C5000A0EB090002287DD828680001F6D420787E
:101C6000C1077D4805D06168227A890141EA027185
:101C700001602178890711D501686268237B920190
:101C8000C1F3027142EA036242EA017101603968FC
:101C9000E26921F01F01521E114339602178490683
:101CA00008D56168227B890141EA0261227A41EA12
:101CB00002710160CAF86880FFF722FC814605E0E6
:101CC000FFF71EFCA0EB0900022843D8286800019A
:101CD000F6D52068410701D400074ED5CAF87060D8
:101CE000FFF70EFC814605E0FFF70AFCA0EB0900B8
:101CF00002282FD82868C0438000F5D520784107F6
:101D0000564814D501682269237D9201C1F30271FE
:101D100042EA036242EA017101603968226A6FF0A7
:101D2000FF0321F4F85103EB0222114339602178BB
:101D3000090712D501682269C1F30361920142EAE1
:101D40000161227E41EA027101603868616A20F413
:101D5000403000E051E008433860CAF87080FFF777
:101D6000CFFB074605E000BFFFF7CAFBC01B0228F8
:101D700043D82868C0438000F6D42078800653D525
:101D800034484030016841F0805101600068344DB2
:101D900000F080500090286840F480702860FFF7C1
:101DA000AFFB074605E000BFFFF7AAFBC01B0228F8
:101DB00023D82868C005F7D5274D143D286810F4AE
:101DC000407020D0218D01F4407181421BD02868E1
:101DD00020F440712348C0F800800660296028681C
:101DE000C00710D0FFF78CFB064641F2883707E0AA
:101DF000FFF786FB801BB84202D90320BDE8F88FAD
:101E000028688007F4D5A16A1248C1F3012208307E
:101E1000032A13D0016821F4F81101602868218D8C
:101E2000C1F30B01084328602078C00604D50E4991
:101E300094F82C00C1F8E0010020DFE702680B4BAA
:101E400022F4F81219400A430260E7E70000474213
:101E50008C38024000380240843802408838024002
:101E600000700040400E474200104742FFFCFF0F49
:101E70002DE9F0470E46050065D0DFF81481D8F84B
:101E80000000F7B200F00F00B04207D288F80070EF
:101E9000D8F8000000F00F00B04254D128683D4C43
:101EA000810712D5400703D5206840F4E050206038
:101EB0002878000703D5206840F46040206020683F
:101EC000A96820F0F000084320602878C0072DD0D2
:101ED000304968680839012812D0022813D0032835
:101EE00011D00968890700292DDA216821F0030142
:101EF00001432160FFF704FB814641F2883A0EE07E
:101F000009688903EFE709688901ECE7FFF7F8FA48
:101F1000A0EB0901514502D90320BDE8F0872068F4
:101F2000696800F00C00B0EB810FEFD1D8F8001019
:101F3000404601F00F01B14207D90770006800F078
:101F40000F00B04201D00120E7E72878400705D50F
:101F50002068E96820F4E0500843206028780007F2
:101F600006D52068296920F4604040EAC10020605D
:101F700000F028F82168084AC1F30311515CC840F9
:101F80000649086006480068FFF722FC0020C4E705
:101F9000003C024008380240F835000814000020D8
:101FA0000C0000200448054900680968044AC1F390
:101FB0008221515CC840704714000020083802405C
:101FC00008360008154810B5006810F00C021448D7
:101FD00013D04110042A0FD0082A0ED10F4C241F11
:101FE0002268236802F03F025B0207D52068C0F335
:101FF0008810A0FB010106E0084610BD2168C1F36E
:102000008811A1FB00010023FEF7ECF82168C1F361
:102010000141491C4900B0FBF1F010BD08380240F5
:102020000024F4002DE9F84F040076D02078DFF882
:1020300038A3CE4DC00749D0DAF800105046C1F39E
:102040008101012908D00068C0F3810002280AD16B
:10205000281D0068400206D52868800336D56068D0
:102060000028E2D032E06068B0F5803F10D0B0F5D3
:10207000A02F286810D020F480302860286820F431
:10208000802028606068A0B1FFF73AFA06460CE0AD
:10209000286840F48030F4E740F480202860F7E7B7
:1020A000FFF72EFA801B642873D828688003F7D5C1
:1020B0000CE0FFF725FA064605E000BFFFF720FA1F
:1020C000801B6428F0D828688003F7D42078DFF8D4
:1020D000A08280074FF000093ED5DAF80010504684
:1020E00011F00C0F09D00068C0F3810002280BD159
:1020F0009D48001F0068400206D42868800715D557
:10210000E068012809D111E0E068B8B10120C8F801
:102110000000FFF7F5F9064605E020E1FFF7F0F9CA
:10212000801B0228C0D828688007F7D52868216955
:1021300020F0F80040EAC10028600DE0C8F80090E7
:10214000FFF7DEF9064604E0FFF7DAF9801B022804
:102150001FD828688007F7D42078000722D5824E40
:10216000844861696C3671B101210160FFF7C8F9DB
:10217000074604E0FFF7C4F9C01B022809D83068FD
:102180008007F7D50EE0C0F80090FFF7B9F90746D1
:1021900005E082E0FFF7B4F9C01B02287DD8306863
:1021A0008007F7D42078400768D5DFF8BCB1002756
:1021B0000BF1380BDBF80000C0000BD4DBF800108B
:1021C00041F08051CBF80010DBF80000012700F04F
:1021D00080500090684E3068C00510D4306840F4DC
:1021E00080703060FFF78CF9009005E0FFF788F908
:1021F0000099401A022850D83068C005F6D55A4ECA
:10220000A068683601280FD00528306810D020F06B
:1022100001003060306820F004003060A068B8B180
:10222000FFF76EF900900FE0306840F00100F4E72E
:1022300040F004003060F7E7FFF762F90099411AB7
:1022400041F28830814266D830688007F4D50EE0CC
:10225000FFF756F9009007E0FFF752F90099411A8D
:1022600041F28830814256D830688007F4D42FB1CB
:10227000DBF8001021F08051CBF80010A069D0B33A
:10228000DAF800205146C2F38102022A4AD002281D
:10229000484607D0C8F8600000E03CE0FFF730F99E
:1022A00004463BE04746C8F86000FFF729F90646B8
:1022B00005E000BFFFF724F9801B02282BD828680F
:1022C0008001F7D4D4E907010843A16A2B4A4908E1
:1022D00002EB0141626A41EA8211084394F82C1032
:1022E00040EA01612048001F016001203866FFF7C5
:1022F00007F9044605E034E0FFF702F9001B022865
:1023000009D828688001F7D52BE000BFFFF7F8F85F
:10231000001B022802D90320BDE8F88F286880013D
:10232000F4D41EE00128F7D00868E26900F48001C7
:10233000914214D1226A00F03F0191420FD147F639
:10234000C071626A0140914209D1A26A00F4403131
:10235000914204D1E16A00F07060884201D001200E
:10236000DAE70020D8E700000838024000380240D1
:1023700000004742800E4742007000400000FFFF0F
:1023800070B50D46040003D094F82C0010B107E09E
:10239000012070BD002084F82D00204600F011F8C7
:1023A000022084F82C00211D2068FEF7DFFBD4E911
:1023B00000022946FEF72CFC012084F82C000020A6
:1023C00070BDFEF779BE10B5044690F82C000228C7
:1023D00009D0022084F82C002068FEF7EFFB0120D2
:1023E00084F82C00002010BD70B5044690F82C0035
:1023F0000D4602280DD0022084F82C002068FEF73C
:10240000E3FB2868022805D05FF0010084F82C0067
:10241000002070BD0520F9E710B5040011D002209E
:1024200084F851002068016821F0400101602046D5
:1024300000F04CF80020606584F8510084F85000EA
:1024400010BD012010BD90F85100704770B5040018
:1024500005D00025A56294F8510010B106E00120D6
:1024600070BD84F85050204600F046F8022084F8F1
:1024700051002068016821F040010160D4E90101A8
:102480000843D4E903121143084361690843218BCF
:1024900001F400710843E1690843216A0843A16A15
:1024A000084321680860A069042101EA1040616ABC
:1024B0000843216848602068C16921F40061C16156
:1024C0006565012084F85100002070BD006807494F
:1024D000884209D10648016821F4801101604FF457
:1024E00060710448FEF756BE70470000005001407E
:1024F000443802400014024010B586B0044614214E
:102500006846FDF7B9FE14492068884221D1134876
:102510000021026842F480120260006800F480101A
:1025200005900E481438026842F0200202600068EC
:1025300000F0200005904FF4607000900220CDE97B
:102540000101032003900520049069460448FEF72A
:10255000E7FE06B010BD00000050014044380240C4
:10256000001402402DE9F84F0446406800259846C3
:1025700016460F464FF0040BB0F5827F01D1A068DC
:1025800088B194F85000012818D0012084F8500038
:10259000FEF7B6FF814694F851004FF0000A01287B
:1025A0000ED002257DE084F851B013460A4620463D
:1025B000CDF8008000F02CF9BDE8F88F0220FBE791
:1025C000002F6DD0002E6BD084F851B0C4F854A009
:1025D000A763A687E687C4F830A0A4F834A0A4F8BF
:1025E00036A0C4F840A0C4F844A0A068B0F5004FDD
:1025F00004D12068016821F48041016020680168ED
:10260000490603D4016841F040010160E068D8B197
:1026100039E020688168C90709D0007BA16B087088
:10262000A06B401CA063E08F401EE0870CE0FEF72B
:1026300067FFA0EB0901414503D3B8F1FF3F03D089
:1026400036E0B8F1000F33D0E08F0028E1D11DE073
:1026500020688168C90709D0C068A16B0880A06B99
:10266000801CA063E08F401EE0870CE0FEF748FF6F
:10267000A0EB0901414503D3B8F1FF3F03D017E0B8
:10268000B8F1000F14D0E08F0028E1D14A4641464E
:10269000204600F04AFC08B120206065606D00B162
:1026A0000125012084F8510084F850A0284683E7D2
:1026B0000325F6E72DE9F84F044690F8500000276F
:1026C0001D461646894601280DD04FF0010B84F8AF
:1026D00050B0FEF715FF804694F85100BA46012825
:1026E00004D002278EE00220BDE8F88FB9F1000F78
:1026F0007DD0002E7BD0032084F85100C4F854A074
:10270000C4F83090A686E686C4F838A0A4F83CA0A9
:10271000A4F83EA0C4F844A0C4F840A0A068B0F556
:10272000004F04D12068016841F4804101602068B5
:102730000168490603D4016841F040010160E06886
:10274000B0F5006F606803D030B3012E24D040E0B4
:1027500008B1012E1CD1206B21680088C86006E0FA
:1027600020688168890709D5216B0988C160206BC1
:10277000801C2063E08E401EE08609E0FEF7C0FE6C
:10278000A0EB0800A84202D3681C01D031E07DB361
:10279000E08E0028E4D11FE0206B216800780873E8
:1027A00006E020688168890709D5216B09780173E3
:1027B000206B401C2063E08E401EE08609E0FEF79F
:1027C0009FFEA0EB0800A84202D3681C01D010E0D5
:1027D00075B1E08E0028E4D142462946204600F03B
:1027E000D3FB08B120206065A06820B107E008E0B5
:1027F000FFE7032706E02068C16880680090606DED
:1028000000B1012784F851B084F850A038466BE736
:102810002DE9F84F044690F8500000270A9E1D4607
:1028200092468B464FF0010901280ED0012084F812
:102830005000FEF765FE804694F85100616801285B
:102840000CD0B1F5827F07D102E00220BDE8F88FFD
:10285000A16809B9042801D00227C2E0BBF1000F2A
:1028600027D0BAF1000F24D01DB394F851000428EA
:1028700002D0052084F8510000206065C4F838A01B
:10288000E587A587C4F830B0E586A5862064606436
:1028900020680168490603D4016841F040010160E5
:1028A000E068B0F5006F606805D0E8B3012D46D050
:1028B0007FE0012795E008B1012D39D1206B216817
:1028C0000088C860206B801C2063E08E401EE0867C
:1028D0002EE02068816889070FD5E18E69B1B9F1D2
:1028E000010F0AD1216B0988C160206B801C206315
:1028F000E08E401EE0864FF0000920688168C9071D
:102900000CD0E18F51B1C068A16B0880A06B801C16
:10291000A063E08F401EE0874FF00109FEF7F0FD55
:10292000A0EB0800B04200E009E001D3701C50D1D8
:10293000E08E0028CDD1E08F0028CAD13FE0206B87
:10294000216800780873206B401C2063E08E401ED5
:10295000E0862EE02068816889070FD5E18E69B195
:10296000B9F1010F0AD1216B09780173206B401C6A
:102970002063E08E401EE0864FF0000920688168E9
:10298000C9070CD0E18F51B1C068A16B0870A06B72
:10299000401CA063E08F401EE0874FF00109FEF766
:1029A000AFFDA0EB0800B04202D3701C01D010E0D4
:1029B0007EB1E08E0028CDD1E08F0028CAD14246FA
:1029C0003146204600F0E0FA28B10127202060655A
:1029D00007E0032705E0A06818B92068C16880688F
:1029E0000090012084F85100002084F850003846FF
:1029F0002CE710B5401EB0F1807F01D3012010BD3F
:102A00004FF0E02460610F21601700F000FC00200F
:102A1000A06107202061002010BDFEE7FEF73ABB51
:102A20002DE9F041244886B00178002940D1234C9B
:102A3000012505702068002640F00800206020680D
:102A4000022700F00800059068038DE8E100DFF838
:102A5000708069464046FEF763FC206840F008003D
:102A600020602068694600F008000590A0148DE8F9
:102A7000E1004046FEF754FC206840F0040020606E
:102A80002068104C00F00400059004208DE8E1005F
:102A900069462046FEF744FC002204212046FEF74A
:102AA00029FD012204212046FEF724FD00F0ECFA66
:102AB00006B0BDE8F0810000180000203038024068
:102AC000000C0240000802402DE9F843154D0C4669
:102AD0000746002204212846FEF70CFDDFF8488057
:102AE0004FF40056002231464046FEF703FD3846BB
:102AF00000F018FB0D4822466946C3680C48FFF7F2
:102B000031FD08B100F0B6FA012231464046009C82
:102B1000FEF7F0FC012204212846FEF7EBFC2046DC
:102B2000BDE8F88300080240000C024018000020B5
:102B30009802002070B50546012251030948FEF7AE
:102B4000D9FC094C002204212046FEF7D3FC28467C
:102B500000F0E8FA2046BDE8704001220421FEF7AB
:102B6000C9BC0000000C02400008024070B50546D8
:102B700000224FF400510948FEF7BCFC084C00222B
:102B800004212046FEF7B6FC284600F0CBFA20468A
:102B9000BDE8704001220421FEF7ACBC000C0240ED
:102BA00000080240F0B503688C88DD68C5F30B456A
:102BB0002C442504882404EBC2141E5906F47046E4
:102BC0001E5103680F68DE68C6F30B46761C3E4450
:102BD0002E431E5104688B89E568C5F30A052B4412
:102BE0001D048C2303EBC213E65806F47046E6502E
:102BF00004688F68E668C6F30A06761C3E442E43D6
:102C0000E6509423046803EBC213E55825F007054A
:102C1000E55005680C69EC5091F831300C7E1F02CC
:102C200026069C24056804EBC21491F8323055F84E
:102C300004C04FF0000C45F804C091F8305046EA4B
:102C400003433D431D4303681D519823046803EB70
:102C5000C213E55825F0FF05E55005684C69EC50B6
:102C6000A023046803EBC213E55840F20776B5438E
:102C7000E550D1E907452C430568EC50AC230468C6
:102C800003EBC213E55844F803C005684C6AEC50E6
:102C90000B698BB3012B32D0042B32D0022B30D0F6
:102CA000032B2ED0072B2CD00123B024056804EB76
:102CB000C2142E5906F0E0262E51D1E90065AD1B55
:102CC0000E8D5D435E43ED1C45EA064305682B51BE
:102CD000B423046803EBC213E5586FF30A05E5500B
:102CE0000468C96AE1500068842101EBC2114258AE
:102CF00042F001024250F0BDFFE70423D5E7032371
:102D0000D3E70223D1E7000000B587B01C21684655
:102D1000FDF7B2FA10480F49002201600121C0E915
:102D200001120421C16010214023C0E90413802353
:102D3000C0E9063202624262826200910191029110
:102D400003910491059106916946FFF719FB07B0BD
:102D500000BD0000400100A010020020214808B57D
:102D6000016841F020010160016801F0200100913B
:102D7000016841F080010160016801F0800100916B
:102D8000016841F004010160016801F00401009153
:102D9000016841F001010160016801F00101009149
:102DA000016841F002010160016801F00201009137
:102DB000016841F040010160016801F040010091AB
:102DC000016841F010010160016801F010010091FB
:102DD000016841F008010160006800F008000090FF
:102DE00008BD0000303802400E4810B50C490160A3
:102DF0000D49416000214FF480428160C0E9031217
:102E000041618161C1610162FEF7C0FB002105489B
:102E1000FEF77CFBBDE8104000210248FEF797BB9F
:102E2000005C0040BC000020A086010070B59AB094
:102E300034216846FDF720FA34210DA8FDF71CFA6D
:102E40002A4829490024C0E9001484600721C4608D
:102E5000C0E90441032181610E210525C0E9071560
:102E60004FF4A7714162F52181624FF4AA71C162EA
:102E7000F721016380F8344080F8354080F836400F
:102E8000FEF708FD019402944FF48066CDE90646F2
:102E9000039404940094CDE908548DF830400594CF
:102EA0008DF831400A940B948DF832400022694627
:102EB0000E48FEF7ADFC0D940E940F9410941194EF
:102EC0001294CDE91346CDE915548DF864408DF880
:102ED0006540179418948DF8664001220DA90348A7
:102EE000FEF796FC1AB070BD00680140100100208A
:102EF0000B480A494FF4007201604FF4827141603F
:102F000000218160C1600161C0E90512C1610162F7
:102F1000416281620A21C162FFF798BA0050014004
:102F2000B8010020FEE770477047F8B504464068D6
:102F30004FF48273984221D1A0684FF48065B0F5B8
:102F4000004F01D0A8420AD12068066826F040064A
:102F500006606068984211D1A068A8420ED0009225
:102F60000B4600228021204600F03AF8002804D0C9
:102F7000606D40F0200060650320F8BD00920B46B4
:102F800000220121EFE7000038B504461248134B38
:102F90000068B0FBF3F04FF47A7358430090606818
:102FA000B0F5827F0DD10B46009200228021204691
:102FB00000F016F870B1606D40F0200060650320ED
:102FC00038BD009830B1401E009020688068C04332
:102FD0000006F6D5002038BD1400002000366E0132
:102FE0002DE9F0411D4617460E460446DDF81880CF
:102FF00008E0681C06D0FEF783FAA0EB0800A842A0
:103000000BD255B12068806836EA000030D000202D
:10301000B842EED10020BDE8F0812068416821F07F
:10302000E00141606068B0F5827F0BD1A068B0F527
:10303000004F02D0B0F5806F04D12068016821F004
:1030400040010160A06AB0F5005F09D12068016805
:1030500021F4005101602068016841F400510160D1
:10306000012084F85100002084F850000320D2E7AA
:103070000120CDE710B50348FFF7CEF9BDE81040B9
:1030800000F002B89802002000B587B02148FFF791
:10309000DAF900283BD11F481F4901601821C1619E
:1030A00000218160416107220161C0E90A12C1600B
:1030B0004FF400720162826141624FF4827141609B
:1030C0001648016841F480110160006800F4801026
:1030D000059012481438016841F020010160006831
:1030E000694600F0200005904FF4607000900220C7
:1030F0000190029001200390052004900848FEF7FB
:103100000FF907B003485DF804EBFFF79FB907B06C
:1031100000BD0000980200200050014044380240E9
:103120000014024001B5064801226946C3680548FB
:10313000FFF7C0FA002801D0FFF79CFF08BD000090
:1031400018000020980200207047000070B59EB063
:1031500030216846FDF790F8142118A8FDF78CF887
:1031600030210CA8FDF788F81F480025016841F0C0
:1031700080510160006800F080501D901B4801687C
:1031800041F4404101600068022400F440401D9079
:1031900001200090000401908001CDE9064008263E
:1031A00008964FF4B470CDE9090403200B906846EB
:1031B000FEF738FFFEF7FAFC18A90F2081E831006E
:1031C0004FF4A0501B90E0021C90052118A8FEF7B8
:1031D0004FFE4FF4D870159510900C9612940CA8D1
:1031E000FEF71CFD1EB070BD40380240007000406C
:1031F0000548016841F47001016003494FF0006027
:10320000803908607047000088ED00E0FEE709079C
:10321000090E002804DB00F1E02080F8001470475C
:1032200000F00F0000F1E02080F8141D704702E06C
:1032300008C8121F08C1002AFAD170477047002041
:1032400001E001C1121F002AFBD170472820FFF7BF
:103250008DBC2920FFF78ABC4FF4A0707047F02086
:10326000704710B5FFF7DCFBCA20FFF77FFCC320D7
:10327000FFF760FC0820FFF75DFC5020FFF75AFCC9
:10328000CF20FFF773FC0020FFF754FCC120FFF7AD
:1032900051FC3020FFF74EFCED20FFF767FC642067
:1032A000FFF748FC0320FFF745FC1220FFF742FC24
:1032B0008120FFF73FFCE820FFF758FC8520FFF74F
:1032C00039FC0020FFF736FC7820FFF733FCCB20D9
:1032D000FFF74CFC3920FFF72DFC2C20FFF72AFCD0
:1032E0000020FFF727FC3420FFF724FC0220FFF723
:1032F00021FCF720FFF73AFC2020FFF71BFCEA2017
:10330000FFF734FC0020FFF715FC0020FFF712FC4C
:10331000B120FFF72BFC0020FFF70CFC1B20FFF770
:1033200009FCB620FFF722FC0A20FFF703FCA220CD
:10333000FFF700FCC020FFF719FC1020FFF7FAFB95
:10334000C120FFF713FC1020FFF7F4FBC520FFF7A7
:103350000DFC4520FFF7EEFB1520FFF7EBFBC72028
:10336000FFF704FC9020FFF7E5FB3620FFF7FEFB9C
:10337000C820FFF7DFFBF220FFF7F8FB0020FFF784
:10338000D9FBB020FFF7F2FBC220FFF7D3FBB6203A
:10339000FFF7ECFB0A20FFF7CDFBA720FFF7CAFBE6
:1033A0002720FFF7C7FB0420FFF7C4FB2A20FFF705
:1033B000DDFB0020FFF7BEFB0020FFF7BBFB00207A
:1033C000FFF7B8FBEF20FFF7B5FB2B20FFF7CEFB95
:1033D0000020FFF7AFFB0020FFF7ACFB0120FFF759
:1033E000A9FB3F20FFF7A6FBF620FFF7BFFB01205C
:1033F000FFF7A0FB0020FFF79DFB0620FFF79AFBDD
:103400002C20FFF7B3FBC820FFF708FB2620FFF7AF
:10341000ADFB0120FFF78EFBE020FFF7A7FB0F209D
:10342000FFF788FB2920FFF785FB2420FFF782FBAD
:103430000C20FFF77FFB0E20FFF77CFB0920FFF736
:1034400079FB4E20FFF776FB7820FFF773FB3C20DB
:10345000FFF770FB0920FFF76DFB1320FFF76AFBF6
:103460000520FFF767FB1720FFF764FB1120FFF72C
:1034700061FB0020FFF75EFBE120FFF777FB0020F8
:10348000FFF758FB1620FFF755FB1B20FFF752FBF9
:103490000420FFF74FFB1120FFF74CFB0720FFF73D
:1034A00049FB3120FFF746FB3320FFF743FB422067
:1034B000FFF740FB0520FFF73DFB0C20FFF73AFB31
:1034C0000A20FFF737FB2820FFF734FB2F20FFF7F8
:1034D00031FB0F20FFF72EFB1120FFF747FBC82021
:1034E000FFF79CFA2920FFF741FBBDE810402C2094
:1034F000FFF73CBB10B5FFF793FA0321D320FFF78A
:10350000E3FA80B210BD0000FEF748F9FFF71EFE97
:10351000FFF724FC31483049022201600021C0E954
:103520000112C160C0E90A1201634163FDF732FC78
:1035300001212A48FDF7DCFBFFF7E6FBFFF754FC0F
:10354000FFF774FCFFF7D4FCFCF7B8FF4FF05044D2
:1035500021460020FCF7FCFF21460120FCF7F8FF84
:103560000120FDF7CBF8FCF7FBFE41F28834204642
:10357000FDF790FD4FF0FF352846FCF7B9FE280611
:10358000FCF7B6FE2046FDF785FD154C4FF47A7624
:103590002046FDF7C7F813A10120FCF74DFF204698
:1035A000FDF7C0F80FA10220FCF746FF2046FDF70B
:1035B000B9F80CA10320FCF73FFF2046FDF7B2F855
:1035C00008A10420FCF738FF3046FDF763FD2846CC
:1035D000FCF78EFEDCE7000000B002407C0000201B
:1035E000404040FF48454C4C4F20574F524C440000
:1035F0000006101600061016000000000000000073
:103600000102030406070809000000000102030488
:1036100000000000000000000000000000000000AA
:10362000000000000000000000000000000000009A
:10363000000000000000000000000000000000008A
:10364000000000000000000000000000000000007A
:1036500000000000000000000000000000000380E7
:1036600000038000038000038000038000038000CB
:1036700003800003800003800001000001000000BF
:103680000000000000038000038000000000000034
:10369000000000000000000000000000000000002A
:1036A0000000000000000000000E70000E70000E10
:1036B000700004200004200004200004200000000A
:1036C00000000000000000000000000000000000FA
:1036D00000000000000000000000000000000000EA
:1036E0000000000000000000000000000000066074
:1036F000000660000660000660000660003FF800FB
:103700003FF8000660000CC0003FF8003FF8000CD6
:10371000C0000CC0000CC0000CC0000CC0000000B9
:103720000000000000000000000000000000000099
:1037300000000001800001800007B0000FF00018B9
:1037400070001870001C00000F800007E00000F0FF
:10375000001830001C30001C70001FE0001BC0006F
:103760000180000180000180000180000000000055
:1037700000000000000000000000000000000780C2
:10378000000FC0001CE0001860001860001CE00082
:103790000FF80007E0001FF00007380006180006C9
:1037A000180007380003F00001E0000000000000EE
:1037B0000000000000000000000000000000000009
:1037C00000000000000000000000000003F00007FF
:1037D000F0000C60000C00000C0000060000070068
:1037E000000F9C001DFC0018F0001870000FFC007A
:1037F00007DC0000000000000000000000000000E6
:1038000000000000000000000000000000000000B8
:10381000000380000380000380000100000100001D
:103820000100000100000000000000000000000096
:103830000000000000000000000000000000000088
:103840000000000000000000000000000000000078
:1038500000000000000000180000380000700000A8
:10386000F00000E00000E00001C00001C00001C065
:103870000001C00001C00001C00000E00000E00045
:103880000070000070000038000018000000000008
:103890000000000000000000000000000000180010
:1038A000001C00000E00000E0000070000070000D2
:1038B0000380000380000380000380000380000376
:1038C00080000700000700000F00000E00001C0031
:1038D00000180000000000000000000000000000D0
:1038E0000000000000000180000180000180001D38
:1038F000B8001FF80007E00003C00003C000066026
:103900000006600000000000000000000000000051
:1039100000000000000000000000000000000000A7
:103920000000000000000000000000000000000097
:103930000000000001800001800001800001800083
:103940000180003FFC003FFC00018000018000017D
:1039500080000180000180000000000000000000E5
:103960000000000000000000000000000000000057
:103970000000000000000000000000000000000047
:103980000000000000000000000000000000000037
:103990000000000000000000000000E00000C00087
:1039A00001C000018000018000030000030000004E
:1039B0000000000000000000000000000000000007
:1039C00000000000000000000000000000000000F7
:1039D0000000001FF8001FF80000000000000000B9
:1039E00000000000000000000000000000000000D7
:1039F00000000000000000000000000000000000C7
:103A000000000000000000000000000000000000B6
:103A100000000000000000000000000000000000A6
:103A20000000000000000000000003C00003C00010
:103A300003C00000000000000000000000000000C3
:103A4000000000000000000000180000180000380E
:103A50000000300000700000600000600000C00046
:103A600000C0000180000180000300000300000688
:103A700000000600000E00000C00001C00001800F2
:103A8000001800000000000000000000000000001E
:103A900000000000000003C00007E0000C30000C34
:103AA00030001818001818001818001818001818F6
:103AB000001818001818000C30000C300007E00047
:103AC00003C0000000000000000000000000000033
:103AD0000000000000000000000000000000008066
:103AE000000780001F80001D800001800001800011
:103AF0000180000180000180000180000180000140
:103B000080000180001FF8001FF800000000000086
:103B100000000000000000000000000000000000A5
:103B200000000000000007C0001FF0003830003027
:103B3000180030180000180000300000600001C0BC
:103B4000000380000600000C00001800003FF80091
:103B50003FF800000000000000000000000000002E
:103B6000000000000000000000000000000003C092
:103B7000000FE0000C70000030000030000060001A
:103B800003C00003E00000700000180000180000EF
:103B900018001838001FF0000FC0000000000000DF
:103BA0000000000000000000000000000000000015
:103BB00000000000000000E00001E00001E0000360
:103BC00060000660000660000C60000C6000186079
:103BD000003060003FF8003FF80000600003F8008C
:103BE00003F80000000000000000000000000000DA
:103BF00000000000000000000000000000001FF0B6
:103C0000001FF0001800001800001800001BC00082
:103C10001FF0001C30000018000018000018000001
:103C200018003030003FF0000FC00000000000001E
:103C30000000000000000000000000000000000084
:103C400000000000000000F80003F8000700000E6C
:103C500000000C00001800001BC0001FF0001C300A
:103C6000001818001818001818000C38000FF00081
:103C700003E0000000000000000000000000000061
:103C800000000000000000000000000000001FF81D
:103C9000001FF8001818001838000030000030002D
:103CA00000700000600000600000E00000C0000044
:103CB000C00001C000018000018000000000000081
:103CC00000000000000000000000000000000000F4
:103CD00000000000000007E0000FF0001C38001892
:103CE00018001818000C300007E00007E0000C3046
:103CF000001818001818001818001C38000FF000E1
:103D000007E00000000000000000000000000000CC
:103D1000000000000000000000000000000007C0DC
:103D2000000FF0001C3000181800181800181800B8
:103D30000C38000FF80003D8000018000030000015
:103D4000700000E0001FC0001F0000000000000025
:103D50000000000000000000000000000000000063
:103D60000000000000000000000000000000000053
:103D7000000003C00003C00003C0000000000000FA
:103D80000000000000000000000003C00003C000AD
:103D900003C0000000000000000000000000000060
:103DA0000000000000000000000000000000000013
:103DB0000000000000000000000000F00000F00023
:103DC00000F0000000000000000000000000000003
:103DD000E00001C00001800001800003000002003B
:103DE00000000000000000000000000000000000D3
:103DF000000000000000000000000000001C0000A7
:103E00003C0000F00003C0000F00003C0000F00088
:103E1000003C00000F000003C00000F000003C0068
:103E2000001C000000000000000000000000000076
:103E30000000000000000000000000000000000082
:103E4000000000000000000000000000007FFC00F7
:103E50007FFC000000000000007FFC007FFC0000F1
:103E60000000000000000000000000000000000052
:103E70000000000000000000000000000000000042
:103E8000000000000000000000000000700000784A
:103E900000001E000007800001E000007800001E06
:103EA0000000780001E0000780001E00007800009C
:103EB0007000000000000000000000000000000092
:103EC00000000000000000000000000000000000F2
:103ED0000007C0000FE00018700018300018300014
:103EE00000700000E00003C0000380000300000039
:103EF00000000000000700000700000000000000B4
:103F000000000000000000000000000000000000B1
:103F100000000000000003E00007F0000E38000C75
:103F2000180018780018F80019D800199800199886
:103F30000019980018F8001878001800000C00000C
:103F40000E180007F80003E0000000000000000069
:103F50000000000000000000000000000000000061
:103F6000001F80001FC00001C0000360000360004C
:103F70000630000630000C30000FF8001FF8001863
:103F80000C00300C00FC7F00FC7F000000000000F3
:103F90000000000000000000000000000000000021
:103FA0000000000000000000007FE0007FF000182B
:103FB00038001818001818001838001FF0001FF8F3
:103FC00000181C00180C00180C00180C007FF800DA
:103FD0007FF0000000000000000000000000000072
:103FE00000000000000000000000000000000000D1
:103FF0000003EC000FFC001C1C00180C00300C002F
:1040000030000030000030000030000030000018A8
:104010000C001C1C000FF80003F000000000000062
:104020000000000000000000000000000000000090
:104030000000000000000000007FC0007FF00018BA
:104040003800181800180C00180C00180C00180C78
:1040500000180C00180C001818001838007FF00029
:104060007FE00000000000000000000000000000F1
:104070000000000000000000000000000000000040
:10408000007FF8007FF80018180018180019980031
:104090001980001F80001F800019800019980018E7
:1040A00018001818007FF8007FF8000000000000DA
:1040B0000000000000000000000000000000000000
:1040C0000000000000000000003FFC003FFC000C6E
:1040D0000C000C0C000CCC000CC0000FC0000FC07A
:1040E000000CC0000CC0000C00000C00003FC00021
:1040F0003FC00000000000000000000000000000C1
:1041000000000000000000000000000000000000AF
:104110000003EC000FFC001C1C00180C00300C000D
:1041200030000030000030FE0030FE00300C00385F
:104130000C001C1C000FFC0003F00000000000003D
:10414000000000000000000000000000000000006F
:104150000000000000000000007E7E007E7E00184F
:1041600018001818001818001818001FF8001FF879
:10417000001818001818001818001818007E7E0083
:104180007E7E000000000000000000000000000033
:10419000000000000000000000000000000000001F
:1041A000001FF8001FF8000180000180000180005E
:1041B0000180000180000180000180000180000179
:1041C00080000180001FF8001FF8000000000000C0
:1041D00000000000000000000000000000000000DF
:1041E00000000000000000000007FE0007FE0000C5
:1041F000300000300000300000300000300030306F
:10420000003030003030003030003060003FE000DF
:104210000F8000000000000000000000000000000F
:10422000000000000000000000000000000000008E
:10423000007F3E007F3E0018300018600018C0006C
:104240001980001B80001FC0001CE00018700018BF
:1042500030001838007F1F007F1F000000000000A2
:10426000000000000000000000000000000000004E
:104270000000000000000000007F80007F80000C34
:1042800000000C00000C00000C00000C00000C00F2
:10429000000C0C000C0C000C0C000C0C007FFC0043
:1042A0007FFC000000000000000000000000000093
:1042B00000000000000000000000000000000000FE
:1042C00000F00F00F81F00381C003C3C003C3C0094
:1042D000366C00366C0033CC0033CC00318C0030AF
:1042E0000C00300C00FE7F00FE7F0000000000008C
:1042F00000000000000000000000000000000000BE
:1043000000000000000000000078FE0078FE001CA5
:1043100018001E18001F18001B18001B980019D841
:104320000018D80018F8001878001838007F180016
:104330007F180000000000000000000000000000E6
:10434000000000000000000000000000000000006D
:104350000003C0000FF0001C3800181800381C00C3
:10436000300C00300C00300C00300C00381C0018F1
:1043700018001C38000FF00003C00000000000000F
:10438000000000000000000000000000000000002D
:104390000000000000000000003FF0003FF8000CAB
:1043A0001C000C0C000C0C000C0C000C18000FF87E
:1043B000000FE0000C00000C00000C00003FC000EB
:1043C0003FC00000000000000000000000000000EE
:1043D00000000000000000000000000000000000DD
:1043E0000003C0000FF0001C3800181800381C0033
:1043F000300C00300C00300C00300C00381C001861
:1044000018001C38000FF00007C00007CC000FFC9C
:10441000000C380000000000000000000000000058
:104420000000000000000000007FE0007FF00018A6
:1044300038001818001818001838001FF0001FC0A6
:104440000018E0001870001830001838007F1E00B7
:104450007F0E0000000000000000000000000000CF
:10446000000000000000000000000000000000004C
:104470000007D8000FF8001C3800181800181800A2
:104480001E00000FC00003F000007800181800188C
:1044900018001C38001FF0001BE0000000000000A6
:1044A000000000000000000000000000000000000C
:1044B0000000000000000000003FFC003FFC003155
:1044C0008C00318C00318C00318C00018000018027
:1044D000000180000180000180000180000FF000D9
:1044E0000FF00000000000000000000000000000CD
:1044F00000000000000000000000000000000000BC
:10450000007E7E007E7E0018180018180018180023
:104510001818001818001818001818001818001893
:1045200018000C30000FF00003C000000000000075
:10453000000000000000000000000000000000007B
:104540000000000000000000007F7F007F7F001857
:104550000C000C18000C18000C1800063000063077
:104560000003600003600003600001C00001C000A0
:1045700000800000000000000000000000000000BB
:10458000000000000000000000000000000000002B
:1045900000FE3F80FE3F803006003006003086007F
:1045A00019CC0019CC001B6C001B6C001E7C000E8B
:1045B00038000E38000C18000C1800000000000035
:1045C00000000000000000000000000000000000EB
:1045D0000000000000000000007E7E007E7E0018CB
:1045E00018000C300006600003C00001800001804C
:1045F0000003C0000660000C30001818007E7E002A
:104600007E7E0000000000000000000000000000AE
:10461000000000000000000000000000000000009A
:10462000007C7E007C7E001818000C3000066000C4
:1046300006600003C00001800001800001800001CD
:1046400080000180000FF0000FF00000000000006B
:10465000000000000000000000000000000000005A
:104660000000000000000000001FF8001FF8001804
:10467000180018300018600018C000018000030006
:10468000000618000C18001818003018003FF80039
:104690003FF80000000000000000000000000000E3
:1046A000000000000000000000000000000001F019
:1046B0000001F00001800001800001800001800005
:1046C0000180000180000180000180000180000164
:1046D000800001800001800001800001800001F065
:1046E0000001F000000000000000000000000000D9
:1046F0001800001800001C00000C00000E0000064E
:10470000000006000003000003000001800001809B
:104710000000C00000C000006000006000007000E9
:1047200000300000380000180000180000000000F1
:1047300000000000000000000000000000000F80EA
:10474000000F8000018000018000018000018000D6
:1047500001800001800001800001800001800001D3
:1047600080000180000180000180000180000F8036
:10477000000F8000000000000000000000000000AA
:1047800000000000800001C00003E0000770000688
:1047900030000C1800180C0010040000000000008D
:1047A0000000000000000000000000000000000009
:1047B00000000000000000000000000000000000F9
:1047C00000000000000000000000000000000000E9
:1047D00000000000000000000000000000000000D9
:1047E00000000000000000000000000000000000C9
:1047F00000000000000000000000000000000000B9
:1048000000000000000000000000FFFF00FFFF00AC
:1048100000000003000003800000E00000600000D2
:104820000000000000000000000000000000000088
:104830000000000000000000000000000000000078
:104840000000000000000000000000000000000068
:104850000000000000000000000000000000000058
:10486000000000000000000000000FC0001FE0007A
:1048700000300000300007F0001FF000383000303A
:1048800030003070001FFC000FBC00000000000072
:104890000000000000000000000000000000000018
:1048A00000000000000078000078000018000018E8
:1048B00000001BE0001FF8001C1800180C00180C6A
:1048C00000180C00180C00180C001C18007FF800D1
:1048D0007BE000000000000000000000000000007D
:1048E00000000000000000000000000000000000C8
:1048F0000000000000000000000003EC000FFC00BE
:104900001C1C00380C00300C003000003000003857
:104910000C001C1C000FF80003F000000000000059
:104920000000000000000000000000000000000087
:10493000000000000000007800007800001800006F
:10494000180007D8001FF800183800301800301879
:10495000003018003018003018001838001FFE0012
:1049600007DE000000000000000000000000000062
:104970000000000000000000000000000000000037
:104980000000000000000000000007E0001FF80029
:10499000181800300C003FFC003FFC0030000030D5
:1049A0000000180C001FFC0007F0000000000000D1
:1049B00000000000000000000000000000000000F7
:1049C00000000000000001FC0003FC0006000006DF
:1049D00000003FF8003FF800060000060000060057
:1049E000000600000600000600000600003FF00080
:1049F0003FF0000000000000000000000000000088
:104A000000000000000000000000000000000000A6
:104A10000000000000000000000007DE001FFE0094
:104A200018380030180030180030180030180030E6
:104A300018001838001FF80007D8000018000018E8
:104A4000000038000FF0000FC00000000000000060
:104A50000000000000007800007800001800001836
:104A600000001BE0001FF0001C3800181800181888
:104A7000001818001818001818001818007E7E007A
:104A80007E7E00000000000000000000000000002A
:104A90000000000000000000000000000000018095
:104AA000000180000000000000001F80001F800047
:104AB0000180000180000180000180000180000170
:104AC00080000180003FFC003FFC0000000000006F
:104AD00000000000000000000000000000000000D6
:104AE00000000000000000C00000C0000000000046
:104AF00000001FF0001FF000003000003000003008
:104B000000003000003000003000003000003000B5
:104B10000030000030000030000070001FE0001F77
:104B200080000000000000000000000000003C00C9
:104B3000003C00000C00000C00000CF8000CF80019
:104B40000CC0000D80000F80000F00000F80000DD2
:104B5000C0000CE0003C7C003C7C00000000000039
:104B60000000000000000000000000000000000045
:104B70000000000000001F80001F80000180000175
:104B80008000018000018000018000018000018020
:104B9000000180000180000180000180003FFC00D6
:104BA0003FFC0000000000000000000000000000CA
:104BB00000000000000000000000000000000000F5
:104BC00000000000000000000000F77800FFFC007B
:104BD00039CC00318C00318C00318C00318C0031AB
:104BE0008C00318C00FDEF00FDEF000000000000A4
:104BF00000000000000000000000000000000000B5
:104C000000000000000000000000000000000000A4
:104C100000007BE0007FF0001C3800181800181816
:104C2000001818001818001818001818007E7E00C8
:104C30007E7E000000000000000000000000000078
:104C40000000000000000000000000000000000064
:104C50000000000000000000000003C0000FF00092
:104C60001C3800381C00300C00300C00300C0038B0
:104C70001C001C38000FF00003C000000000000002
:104C80000000000000000000000000000000000024
:104C90000000000000000000000000000000000014
:104CA00000007BE0007FF8001C1800180C00180CB6
:104CB00000180C00180C00180C001C18001FF8003D
:104CC0001BE0001800001800001800007F00007FA3
:104CD00000000000000000000000000000000000D4
:104CE0000000000000000000000007DE001FFE00C2
:104CF0001838003018003018003018003018003014
:104D000018001838001FF80007D800001800001815
:104D10000000180000FE0000FE000000000000007F
:104D20000000000000000000000000000000000083
:104D300000003E78003EFC0007CC000700000600A3
:104D4000000600000600000600000600003FF0001C
:104D50003FF0000000000000000000000000000024
:104D60000000000000000000000000000000000043
:104D70000000000000000000000007F8000FF8002D
:104D80001818001818001F80000FF00000F8001815
:104D900018001838001FF0001FE00000000000009D
:104DA0000000000000000000000000000000000003
:104DB0000000000000000C00000C00000C00000CC3
:104DC00000003FF0003FF0000C00000C00000C0061
:104DD000000C00000C00000C00000C1C0007FC0084
:104DE00003F00000000000000000000000000000D0
:104DF00000000000000000000000000000000000B3
:104E000000000000000000000000787800787800C2
:104E1000181800181800181800181800181800188A
:104E200018001838000FFE0007DE00000000000028
:104E30000000000000000000000000000000000072
:104E40000000000000000000000000000000000062
:104E500000007C3E007C3E001818001818000C3042
:104E6000000C300006600006600007E00003C00090
:104E700003C000000000000000000000000000006F
:104E80000000000000000000000000000000000022
:104E900000000000000000000000783C00783C00AA
:104EA0003118003398003398001AB0001EF0001E2D
:104EB000F0001C60000C60000C60000000000000AE
:104EC00000000000000000000000000000000000E2
:104ED00000000000000000000000000000000000D2
:104EE00000003E7C003E7C000C300006600003C0E9
:104EF0000001800003C0000660000C30003E7C0012
:104F00003E7C0000000000000000000000000000E7
:104F10000000000000000000000000000000000091
:104F2000000000000000000000007E1F007E1F0047
:104F3000180C000C18000C18000630000630000396
:104F4000600003E00001C00000C00001800001809B
:104F5000000300003FC0003FC00000000000000050
:104F60000000000000000000000000000000000041
:104F700000001FF8001FF80018300018600000C083
:104F8000000180000300000618000C18001FF80044
:104F90001FF80000000000000000000000000000FA
:104FA000000000000000000000000000000000E021
:104FB0000001E0000180000180000180000180000C
:104FC00001800001800003800007000003800001D1
:104FD000800001800001800001800001800001E06C
:104FE0000000E000000000000000000000000000E1
:104FF000000000000000018000018000018000012D
:10500000800001800001800001800001800001809B
:10501000000180000180000180000180000180000B
:10502000018000018000018000018000000000007C
:105030000000000000000000000000000000070069
:1050400000078000018000018000018000018000D5
:1050500001800001800001C00000E00001C00001EB
:105060008000018000018000018000018000078035
:105070000007000000000000000000000000000029
:105080000000000000000000000000000000000020
:1050900000000000000000000E00001F18003BB8D8
:1050A0000031F00000E000000000000000000000FF
:1050B00000000000000000000000000000000000F0
:1050C0000000000000000000E85000080000002080
:1050D0007C0000002E320008645100087C00002093
:1050E000C40800003E32000800000000000000007C
:1050F0000100000010000000000000000024F40087
:10510000000000000000024000300000001000001D
:1051100000180240001802400000000000000000DB
:10512000103600081100180001000000633200086A
:10513000F5340008533200084D320008000000002A
:10514000000000000000000000000000000000005F
:10515000000000005F320008593200080000000023
:04516000000000004B
:04000005080001AD41
:00000001FF
